:100A09000211000A02130064020D0000010C000229
:030A19000F271094
:100B7B00438901758CFF758A18D2A9D2AFD28C220A
:100B8B00438910758DFC758B18D2ABD2AFD28E22E8
:100A7D00120B7B120B8B120AF385110D85120E755D
:100A8D00A0FFD291309103209009750C0185130DB3
:080A9D0085140E1206F580EC31
:03000B00020A4B9B
:040A4B00C0E0C0D077
:100A4F00758CFF758A180509E50970020508C395AD
:100A5F000EE508950D5004C2A18002D2A1E50964EC
:090A6F006445087004F508F5095E
:050A7800D0D0D0E032F7
:03001B0002076B6E
:10076B00C0E0C0F0C0D075D000C000C004C005C050
:03077B0006C007AE
:10077E00758DFC758B18E50C6046050BE50B70024C
:10078E00050AC3E5149512FDE5139511FCAE0FAFE6
:10079E00101204AFAC0AAD0BCFCDCFCECCCE12041F
:1007AE00AFED4C7008E50E150E7002150DE50BB58C
:1007BE00100EE50AB50F09750A00750B00750C00D1
:1007CE00D007D006D005D004D000D0D0D0F0D0E0E5
:0107DE0032E8
:020003002D00CE
:100AA5007F38120B597F017E00120ABA7F38120B6C
:050AB500597F017E00E5
:100ABA007C007D1412049DEF1FAC0670011E4C7061
:010ACA00F635
:010ACB002208
:100B5900C2A6C2A58F80D2A7C2A77F017E00020AC2
:010B6900BAD1
:100AF300120AA5120AA57F0C120B597F06120B5975
:0C0B03007F01120B597F0A7E00020ABA23
:100B6A00D2A6C2A58F80D2A7C2A77F017E00020AA1
:010B7A00BAC0
:0C000E007F01120B597F057E00020ABA28
:100B4300EDBF01052480FA800324C0FAAF02120B23
:060B530059AF03020B6A1A
:080935008F608B618A62896307
:10093D00E4F565F566C3740F9DF567756801E560AF
:10094D00B40107ED2480F5648005ED24C0F564AF96
:10095D0064120B59AB61AA62A963856682856583B2
:10096D00120470FF602B120B6A0566E566700205B6
:10097D0065E560B401DED3E56695677480F865655D
:10098D009840D1E56860CD7FC0120B59E4F56880C1
:01099D00C396
:01099E002236
:0805A1008F4E8D4F8A508B51E3
:1005A900E4F553C3E550648094805022C3E4955127
:1005B900F551E49550F5507BFF7A0079031209351E
:1005C900054FE54FD3940F4005054EE4F54FE5512E
:1005D90045506025AE50AF517C007D0A1205047468
:1005E900542553F8A605AE50AF517C007D0A12057B
:1005F900048E508F51055380D5745A2552F8E4F66C
:10060900AF53E553FDE552C39DF551E49400F55010
:10061900E4FEEEC395524004EE9F5037D3E5519462
:1006290000E550648094804010E551155170021521
:1006390050745A2EF876308017155374542553F890
:10064900E6FD745A2EF8A605745A2EF8743026F66B
:100659000E80BF7B007A00795AAD4FAF4E02093543
:10099F002D3E20207365742074696D650020202022
:1009AF002073657420706F7765720020202020738C
:1009BF0065742074696D65002D3E20207365742069
:1009CF00706F7765720074696D653A2532647300D4
:1009DF002D3E206D696E3A002020206D61783A001F
:1009EF002020206D696E3A002D3E206D61783A000F
:0A09FF0000000000000000000000EE
:100A1C002028220001010200FF0B0F01000003013E
:100A2C00FF0B290202020200FF08C703040403049F
:0E0A3C00FF07DF0403030300FF0853014A0015
:0B0B9B00EF1FAC0670011E4C70F6222C
:1006F50020B31630B3FD7F107E27120B9BE54A759C
:10070500F008A42423F8E6F54A20B21630B2FD7F9E
:10071500107E27120B9BE54A75F008A42424F8E601
:10072500F54A20B11212000E30B1FDE54A75F00808
:10073500A42425F8E6F54A20B01212000E30B0FDCB
:10074500E54A75F008A42426F8E6F54AE54A75F069
:1007550008A42427F8860308E6FA08E6F98B4B8AED
:060765004CF54D02053ABF
:100B0F007BFF7A09799FE4FD7F011209357BFF7A1C
:0A0B1F000979ACE4FD7F02020935FC
:100B29007BFF7A0979BAE4FD7F011209357BFF7AE7
:0A0B39000979C7E4FD7F02020935C7
:1008C700784E7C007D007BFF7A0979FF7E007F0AE6
:1008D70012044A755BFF755C09755DD5AE0FAF10E5
:1008E7007C037DE81204AF8E5E8F5F7B007A007910
:1008F7004E12007A20B30F30B3FD74E82510F510BF
:100907007403350FF50F20B20F30B2FD74182510A0
:10091700F51074FC350FF50F20B004E4F54A227B7F
:0E092700007A00794EE4FD7F0112093580A5AB
:1007DF007BFF7A0979DFE4FD7F011209357BFF7A10
:1007EF000979E7E4FD7F0212093520B30E30B3FD1E
:1007FF0074052512F512E43511F51120B22030B22F
:10080F00FD74FB2512F51274FF3511F511C3E512B6
:10081F009514E51195134006851311851412755221
:10082F0003AB12AA117D077F011205A1755203AB0D
:10083F0014AA137D077F021205A120B0AD30B0FDC1
:04084F00754A0422C0
:100853007BFF7A0979EFE4FD7F011209357BFF7A8B
:100863000979F7E4FD7F0212093520B30E30B3FD99
:1008730074052514F514E43513F51320B22030B2B2
:10088300FD74FB2514F51474FF3513F513D3E51428
:100893009512E5139511500685111385121475529F
:1008A30003AB12AA117D077F011205A1755203AB99
:1008B30014AA137D077F021205A120B0AD30B0FD4D
:0408C300E4F54A22EC
:030000000206698C
:0C066900787FE4F6D8FD75816B0206B0C6
:10037A00E709F608DFFA8046E709F208DFFA803E65
:10038A0088828C83E709F0A3DFFA8032E309F60852
:10039A00DFFA8078E309F208DFFA807088828C83BA
:1003AA00E309F0A3DFFA806489828A83E0A3F6086E
:1003BA00DFFA805889828A83E0A3F208DFFA804C48
:1003CA0080D280FA80C680D4806980F2803380101F
:1003DA0080A680EA809A80A880DA80E280CA803388
:1003EA0089828A83ECFAE493A3C8C582C8CCC58300
:1003FA00CCF0A3C8C582C8CCC583CCDFE9DEE780D0
:10040A000D89828A83E493A3F608DFF9ECFAA9F04E
:10041A00EDFB2289828A83ECFAE0A3C8C582C8CCA4
:10042A00C583CCF0A3C8C582C8CCC583CCDFEADEBD
:10043A00E880DB89828A83E493A3F208DFF980CC1F
:10044A0088F0EF60010E4E60C388F0ED2402B40418
:10045A000050B9F582EB2402B4040050AF232345BF
:06046A0082239003CA7317
:10047000BB010CE58229F582E5833AF583E0225041
:1004800006E92582F8E622BBFE06E92582F8E2228B
:0D049000E58229F582E5833AF583E49322A5
:10049D00EF8DF0A4A8F0CF8CF0A428CE8DF0A42E73
:0204AD00FE222D
:1004AF00BC000BBE0029EF8DF084FFADF022E4CC31
:1004BF00F875F008EF2FFFEE33FEEC33FCEE9DECFA
:1004CF00984005FCEE9DFE0FD5F0E9E4CEFD22ED40
:1004DF00F8F5F0EE8420D21CFEADF075F008EF2F8A
:1004EF00FFED33FD4007985006D5F0F222C398FD7B
:0504FF000FD5F0EA2218
:10050400C2D5EC30E709B2D5E4C39DFDE49CFCEE12
:1005140030E715B2D5E4C39FFFE49EFE1204AFC3D7
:10052400E49DFDE49CFC80031204AF30D507C3E4D2
:060534009FFFE49EFE2281
:06053A008A838982E4734C
:10001E00E567245BF8E60567227858300702785BBF
:10002E00E475F00112056B0205402000EB7F2ED225
:10003E00008018EF540F2490D43440D4FF30040BBA
:10004E00EF24BFB41A0050032461FFE56860021567
:10005E0068056BE56B7002056A30070D7858E4751C
:10006E00F00112056BEF020559020ACC7403D20798
:10007E008003E4C207F5678B588A59895AE4F568FC
:10008E00F56AF56BE56860077F2012005980F575FB
:10009E0069FFC201C200C202C203C205C206C20883
:1000AE00120027FF700D3007057F0012006AAF6B3C
:1000BE00AE6A22B4255FC2D5C204120027FF24D037
:1000CE00B40A00501A75F00A786830D50508B6FFE4
:1000DE000106C6A426F620D5047002D20380D924C8
:1000EE00CFB41A00EF5004C2E5D20402026AD20164
:1000FE0080C6D20080C0D20280BCD2D580BAD205D2
:10010E0080B47F201200592002077401B5680040A8
:10011E00F112001EFF120059020092D208D2068080
:10012E009512001EFB12001EFA12001EF94A4B70A9
:10013E0006793B7A037BFF20022EE568602A7E005B
:10014E008E8275830012047060060EEE656970F083
:10015E00C2D5EBC0E0EAC0E0E9C0E0EE1202B1D0D9
:10016E00E0F9D0E0FAD0E0FB120540FF60AAEBC048
:10017E00E0EAC0E0E9C0E0120059D0E02401F9D075
:10018E00E03400FAD0E0FBE5690460DCD569D98083
:10019E00877BFF7A0279ADD202809C79108002793A
:1001AE0008C206C2088008D2D5790A8004790AC22C
:1001BE00D5E569047002F569E4FAFDFEFF12001E32
:1001CE00FC7B0820011312001EFD7B1030000A126A
:1001DE00001EFE12001EFF7B20EC3382D592D550FE
:1001EE0013C3E43000069FFFE49EFEE42001039D4E
:1001FE00FDE49CFCE4CBF8C201EC700CCFCECDCC70
:10020E00E824F8F870F38017C3EF33FFEE33FEEDFA
:10021E0033FDEC33FCEB33FB994002FB0FD8E9EBDB
:10022E00300105F8D0E0C448B201C0E00AEC4D4EF2
:10023E004F78207B0070C2EAB5690040BCC0E01266
:10024E0002B3D0F0D0E0200104C4C0E0C4B201C0BB
:10025E00F0120042D0F0D5F0EB02009212057B01B5
:10026E002F5301A95801004C00FC4201AD4F01B5BE
:0F027E004401B54901154301BB55019F46019F3E
:10028D0045019F47035B5001042D01082E012B2BC7
:10029D00010C2301292003442A00C4480000012336
:1002AD003F3F3F00790AA2D5200314300509B9104C
:1002BD00020404B9080104A2D5200602500104204D
:1002CD0002689202B568005034C0E07F20300319F7
:1002DD007F30A20272067205500F12030AC202C2CB
:1002ED0006C205C2087F30800F300503E9C0E01259
:1002FD000059300503D0E0F9D0E0B568CC300517D2
:10030D007F30B9100C1200597F583004077F788068
:10031D0003B908031200593002057F2D0200597FE1
:10032D00202008F87F2B2006F322920280CF286E22
:10033D00756C6C2900D20112001E3001F8C20178D3
:10034D006830D50108F60200C42D504349581200FB
:10035D001E2403B405004001E49003569312004A95
:0D036D00743A12004AD2037568040201A917
:10067500020A7DE493A3F8E493A34003F68001F214
:1006850008DFF48029E493A3F85407240CC8C33386
:10069500C4540F4420C8834004F456800146F6DF55
:1006A500E4800B0102040810204080900A09E47ED2
:1006B500019360BCA3FF543F30E509541FFEE4934A
:1006C500A360010ECF54C025E060A840B8E493A311
:1006D500FAE493A3F8E493A3C8C582C8CAC583CA3C
:1006E500F0A3C8C582C8CAC583CADFE9DEE780BEF4
:010A4A0000AB
:10054000BB010689828A83E0225002E722BBFE02B9
:09055000E32289828A83E49322EC
:10055900BB010689828A83F0225002F722BBFE0181
:02056900F3227B
:10056B00FAE6FB0808E6F925F0F618E6CA3AF62291
:10057B00D083D082F8E4937012740193700DA3A30F
:10058B0093F8740193F5828883E473740293686023
:06059B00EFA3A3A380DF23
:100ACC00EFB40A07740D120AD7740A309811A8995A
:100ADC00B8130CC2983098FDA899C298B811F6308A
:070AEC0099FDC299F5992262
:00000001FF
